:10000000883100280000CC22C416CD307439693CF8
:10001000AD316F3774396F36EC327210353C3705BD
:100020008D266F32E5393A0031102D10F23A6E37D5
:1000300069376710EC34EE32000132102D1066364D
:10004000E139E834EE33000133102D10F730F4318C
:1000500068004937F03A741D20008A064937F03AA3
:100060007410EC34EE323A0020102D10D23A6E3774
:1000700069376710EC34EE32A0366F326510703994
:10008000EF31E539F334EE3321008A064937F03A8F
:1000900074103610F33C6D316F36731D0001201063
:1000A0002D104636E139E834EE33A0366F32651054
:1000B0007039EF31E539F334EE3321008A064937E0
:1000C000F03A74103610F33C6D316F36731D000139
:1000D00020102D10D730F43168107039EF31E53928
:1000E000F334EE3321004529D227D210A0246E38F4
:1000F000753AA0366F3265106639EF36A018203A8F
:100100006F103317202AF23CA030E73069373A00ED
:1001100021000C1022000C100830F8008F2800007D
:10012000F817A028F813A50C03180C14031C0C10C6
:100130007817A0287813F80B93289E2800000C1439
:100140003E308400840BA228A528F81B9228781B37
:100150009A28200008000B088B132300951715140C
:1001600000000000891B8B1713087F390319F7283B
:100170002200A200230011082200A300230012087D
:100180002200A4002208A5002000882022002308C5
:100190002300910022002408230092000B088B13F7
:1001A0009517151400000000891B8B17130D140DF3
:1001B0007F390319F7282200A2002300110822002A
:1001C000A300230012082200A4002208A50020009A
:1001D0008820220023082300910022002408230005
:1001E0009200910A0319920A2000AB2823002000F4
:1001F000080021000C1620000C1AFC280830F7001B
:100200002200A401F7171429F71314290310200062
:100210000C1A03142200A40C771714297713F70B78
:1002200006292408F8001F293F30F71B1130F80079
:10023000F80B1829F71B0429771B0E290629200023
:100240000800303022002302F53E031860290B3EDF
:10025000200062290030F800F9005F290130F80021
:100260000030F9005F290230F8000030F9005F2902
:100270000330F8000030F9005F290430F800003046
:10028000F9005F290530F8000030F9005F290630D9
:10029000F8000030F9005F290730F8000030F9005D
:1002A0005F290830F8000030F9005F290930F800B4
:1002B0000030F9005F290A30F8000030F900220010
:1002C000200008000A148A100A1182072A292E2900
:1002D000332938293D29422947294C2951295629B2
:1002E0005B2910302200AA00F701FA01A70CA60C26
:1002F000031C80292808F7070318FA0A2908FA07B7
:10030000FA0CF70CF90CF80CAA0B7629200008005F
:10031000F701F80122002E0803102F18F707F70C39
:10032000F80CAF18F707F70CF80C2F19F707F70CB4
:10033000F80CAF19F707F70CF80C2F1AF707F70CA2
:10034000F80CAF1AF707F70CF80C2F1BF707F70C90
:10035000F80CAF1BF707F70CF80C20000800220080
:10036000AB012B08043C031CD8292808AE0005303B
:10037000AF002000882122002B087807433EF800B8
:100380002030FA000318FA0A7808AE007A08AF00A5
:100390002B082907840000302A3D85000008B000A2
:1003A0002F0885002E08840030088000AB0AB12990
:1003B0002000080020308500AB30840000080319BD
:1003C000F2290230F800BF30F7006400F70BE5298E
:1003D000F80BE3299630F700F70BEC29EF296400BE
:1003E000800BE129080024009513200091112200C0
:1003F0002F08240091000230951B032A1419FE29AE
:100400000030161B0130F8002000080024001614EC
:100410001618082A22002D08AF002000F321220020
:100420002E08AF002000F321240016151619162AF5
:100430002000080001302200A600A7012708043C84
:10044000031C602A0430AB002000DA2122002608B9
:10045000AB00AB09200020082200AD002B08AE0045
:10046000200006222200A8012808053C031C5C2A63
:10047000013028078400203085000008AB002808E0
:10048000AE000530AF002000882178082200AC00C3
:100490002708043C2C07433E8400203085000318C5
:1004A000850A0008AC002B08AD002C08AE00200027
:1004B00006222200A80A342A0310A60DA70A1E2A23
:1004C0002000080063082200A000A1012108033CCD
:1004D000031C872A43302107F8002030FA00031854
:1004E000FA0A7808AE007A08AF0001302107433ECF
:1004F0008400203085000318850A0008B0002F080A
:1005000085002E08840030088000A10A662A200099
:100510006808E7002200A2012208033C031CAD2A60
:1005200048302207F8002030FA000318FA0A780849
:10053000AE007A08AF0001302207483E8400203028
:1005400085000318850A0008B0002F0885002E08D2
:10055000840030088000A20A8C2A20006D08EC007C
:100560002200A3012308033C031CD32A4D30230798
:10057000F8002030FA000318FA0A7808AE007A086A
:10058000AF00013023074D3E840020308500031862
:10059000850A0008B0002F0885002E088400300866
:1005A0008000A30AB22A21002208A1002200A4018F
:1005B0002408033C031CF92A52302407F800203099
:1005C000FA000318FA0A7808AE007A08AF00013082
:1005D0002407523E8400203085000318850A000855
:1005E000B0002F0885002E08840030088000A40A7F
:1005F000D82A21002708A6002200A5012508033CCF
:10060000031C1F2B57302507F8002030FA00031871
:10061000FA0A7808AE007A08AF0001302507573E85
:100620008400203085000318850A0008B0002F08D8
:1006300085002E08840030088000A50AFE2A2100CB
:100640002C08AB002200A6012608033C031C452B06
:100650005C302607F8002030FA000318FA0A780800
:10066000AE007A08AF00013026075C3E84002030DF
:1006700085000318850A0008B0002F0885002E08A1
:10068000840030088000A60A242B21003108B00025
:100690002200A7012708033C031C6B2B61302707AE
:1006A000F8002030FA000318FA0A7808AE007A0839
:1006B000AF0001302707613E840020308500031819
:1006C000850A0008B0002F0885002E088400300835
:1006D0008000A70A4A2B21003608B5002200A80195
:1006E0002808033C031C912B66302807F8002030B3
:1006F000FA000318FA0A7808AE007A08AF00013051
:100700002807663E8400203085000318850A00080B
:10071000B0002F0885002E08840030088000A80A49
:10072000702B21003B08BA002200A9012908033CD4
:10073000031CB72B6B302907F8002030FA00031890
:10074000FA0A7808AE007A08AF00013029076B3E3C
:100750008400203085000318850A0008B0002F08A7
:1007600085002E08840030088000A90A962B2100FD
:100770004008BF002200AA012A08033C031CDD2B0D
:1007800070302A07F8002030FA000318FA0A7808B7
:10079000AE007A08AF0001302A07703E8400203096
:1007A00085000318850A0008B0002F0885002E0870
:1007B000840030088000AA0ABC2B21004508C40030
:1007C0002200AB012B08033C031C032C75302B07C4
:1007D000F8002030FA000318FA0A7808AE007A0808
:1007E000AF0001302B07753E8400203085000318D0
:1007F000850A0008B0002F0885002E088400300804
:100800008000AB0AE22B21004A08C9002200AC019B
:100810002C08033C031C292C7A302C07F8002030CC
:10082000FA000318FA0A7808AE007A08AF0001301F
:100830002C077A3E8400203085000318850A0008C2
:10084000B0002F0885002E08840030088000AC0A14
:10085000082C20082100CE0088312000FD2A21002C
:1008600054082200A100210053082200A000A10882
:10087000031DC52C2008093C031CC52C2108A7001A
:100880002008A600A9010530A800200071217908E0
:10089000FA0078080C3EF8002030FA3D7808220073
:1008A000A6007A08A7000230A8002708AA00260898
:1008B000A9002000AF211A22210058082200A3001D
:1008C000210057082200A200A308031DC12C220802
:1008D000063C031CC12C2308A7002208A600A9017E
:1008E0000530A800200071217908FA0078080C3E34
:1008F000F8002030FA3D78082200A6007A08A70008
:100900000430A8002708AA002608A9002000AF216B
:100910001A2221005A082200A500210059082200AD
:10092000A400A508031DBD2C2408093C031CBD2CF4
:100930002508A7002408A600A9010530A80020006A
:1009400071217908FA0078080C3EF8002030FA3D51
:1009500078082200A6007A08A7000530A80027081A
:10096000AA002608A9002000AF211A221A221A2262
:100970002200A40A0319A50A912CA20A0319A30AAA
:10098000642CA00A0319A10A372C88312000882D75
:101000007230210099008C140C15240017109710D1
:101010009711043092002830950094131413210086
:101020000C1022000C142100E801E70123008C01C0
:101030002200920191016728443420340034403466
:1010400042344434463448344A344C34FF34FF3458
:10105000DB34FF34FF34C134AE34B634BA34C13477
:10106000FF34BD348034BF34FF34BD349E34AE34DD
:10107000B634B934DE34BE34BA34B434CE34E734A2
:10108000EB34ED348034EF34D834BA34BA34BA3473
:10109000C234C334B534B634B634CF349E34EE34AF
:1010A000F634FA34FC34C934B634B634B634C93400
:1010B000F934B634B634D634E134FF34FF34DB349B
:1010C000FF34FF34FF345334C0340034003408306C
:1010D00085001C30840085171200F700003A0319C0
:1010E00081281200F800F81B79283F398700120088
:1010F0008600781B1200781F12001E00F70B7B2859
:101100006C280330230091000030920080312000D1
:10111000AB2088310D302200A500803120008820CE
:1011200088310A302200A5008031200088208831D3
:101130001430230091000030920080312000AB2059
:1011400088310D302200A5008031200088208831B0
:101150000A302200A50080312000882088311D300F
:10116000230091000030920080312000AB208831B4
:101170000D302200A50080312000882088310A30FF
:101180002200A500803120008820883124302300EF
:1011900091000030920080312000AB2088310D306A
:1011A0002200A50080312000882088310A302200EA
:1011B000A50080312000882088312930230091004B
:1011C0000030920080312000AB2088310D302200A9
:1011D000A50080312000882088310A302200A50037
:1011E00080312000882088312100E90180312000F1
:1011F000F920883178082100E9006908313C031D95
:10120000012B2D302300910000309200803120000E
:10121000AB2088310D302200A500803120008820CD
:1012200088310A302200A5008031200088208831D2
:101230002100EA016A080B3C031C472903106A0DD0
:101240007F3E2200A0002030A1000318A10A05085B
:10125000A3000408A20080312000F9208831220078
:1012600023088500220884007808A200A3008031AA
:1012700020002121883122002108850020088400D7
:10128000780880007908813F2100EA0A1A29343061
:10129000230091000030920080312000AB20883183
:1012A0000D302200A50080312000882088310A30CE
:1012B0002200A500803120008820883121005008BC
:1012C0002200A70021004F082200A600A901053036
:1012D000A80080312000712188317908FA0078084F
:1012E0000C3E2200A0002030793DA100A801210879
:1012F000AA002008A90080312000AF2188312100F8
:1013000052082200A700210051082200A600A901CE
:101310000530A80080312000712188317908FA0059
:1013200078080C3E2200A0002030793DA100013059
:10133000A8002108AA002008A90080312000AF21C0
:101340008831210054082200A70021005308220000
:10135000A600A9010530A800803120007121883144
:101360007908FA0078080C3E2200A0002030793D70
:10137000A1000230A8002108AA002008A90080319D
:101380002000AF218831210056082200A70021004B
:1013900055082200A600A9010530A80080312000D0
:1013A000712188317908FA0078080C3E2200A000EB
:1013B0002030793DA1000330A8002108AA002008B0
:1013C000A90080312000AF21883121005808220077
:1013D000A700210057082200A600A9010530A80097
:1013E00080312000712188317908FA0078080C3E9C
:1013F0002200A0002030793DA1000430A80021087F
:10140000AA002008A90080312000AF2188312100E6
:101410005A082200A700210059082200A600A901AD
:101420000530A80080312000712188317908FA0048
:1014300078080C3E2200A0002030793DA100053044
:10144000A8002108AA002008A90080312000AF21AF
:10145000883121005C082200A70021005B082200DF
:10146000A600A9010530A800803120007121883133
:101470007908FA0078080C3E2200A0002030793D5F
:10148000A1000630A8002108AA002008A900803188
:101490002000AF21883121005E082200A700210032
:1014A0005D082200A600A9010530A80080312000B7
:1014B000712188317908FA0078080C3E2200A000DA
:1014C0002030793DA1000730A8002108AA0020089B
:1014D000A90080312000AF2188312100600822005E
:1014E000A70021005F082200A600A9010530A8007E
:1014F00080312000712188317908FA0078080C3E8B
:101500002200A0002030793DA1000830A800210869
:10151000AA002008A90080312000AF2188312100D5
:1015200062082200A700210061082200A600A9018C
:101530000530A80080312000712188317908FA0037
:1015400078080C3E2200A0002030793DA10009302F
:10155000A8002108AA002008A90080312000AF219E
:101560008831210064082200A700210063082200BE
:10157000A600A9010530A800803120007121883122
:101580007908FA0078080C3E2200A0002030793D4E
:10159000A1000A30A8002108AA002008A900803173
:1015A0002000AF218831210066082200A700210019
:1015B00065082200A600A9010530A800803120009E
:1015C000712188317908FA0078080C3E2200A000C9
:1015D0002030793DA1000B30A8002108AA00200886
:1015E000A90080312000AF21883180311A22883152
:1015F00080311A2288318031622A8831F52AA32D60
:1016000021006908323C031D5A2C4530230091000B
:101610000030920080312000AB2088310D30220054
:10162000A50080312000882088310A302200A500E2
:1016300080312000882088312100EB016B08053CB7
:10164000031C4B2B03106B0D7F3E2200A0002030AB
:10165000A1000318A10A0508A3000408A200803114
:101660002000F92088312200230885002208840008
:101670007808A200A30080312000212188312200B7
:101680002108850020088400780880007908813FBF
:101690002100EB0A1E2B4F302300910000309200F6
:1016A00080312000AB2088310D302200A500803130
:1016B0002000882088310A302200A50080312000D7
:1016C00088208831210050082200A70021004F08FF
:1016D0002200A600A9010530A80080312000712158
:1016E00088317908FA0078080C3E2200A0002030EA
:1016F000793DA100A8012108AA002008A900803195
:101700002000AF218831210052082200A7002100CB
:1017100051082200A600A9010530A8008031200050
:10172000712188317908FA0078080C3E2200A00067
:101730002030793DA1000130A8002108AA0020082E
:10174000A90080312000AF218831210054082200F7
:10175000A700210053082200A600A9010530A80017
:1017600080312000712188317908FA0078080C3E18
:101770002200A0002030793DA1000230A8002108FD
:10178000AA002008A90080312000AF218831210063
:1017900056082200A700210055082200A600A90132
:1017A0000530A80080312000712188317908FA00C5
:1017B00078080C3E2200A0002030793DA1000330C3
:1017C000A8002108AA002008A90080312000AF212C
:1017D0008831210058082200A70021005708220064
:1017E000A600A9010530A8008031200071218831B0
:1017F0007908FA0078080C3E2200A0002030793DDC
:10180000A1000430A8002108AA002008A900803106
:101810002000AF21883121005A082200A7002100B2
:1018200059082200A600A9010530A8008031200037
:10183000712188317908FA0078080C3E2200A00056
:101840002030793DA1000530A8002108AA00200819
:10185000A90080312000AF21883180311A228831DF
:1018600080311A2288312100EC016C08053C031CF0
:101870004A2C6C0884002030850000082200A0005B
:10188000AD00FF30AE0080312000062288312100FB
:10189000EC0A352C02302200A000FA30AB00803177
:1018A0002000DA2188312200A00B4D2C20002D2CA5
:1018B000A32D21006908333C031D8C2D5E302300CD
:1018C00091000030920080312000AB2088310D3033
:1018D0002200A50080312000882088310A302200B3
:1018E000A50080312000882088312100ED016D089D
:1018F000053C031CA42C03106D0D7F3E2200A000AC
:101900002030A1000318A10A0508A3000408A200C2
:1019100080312000F9208831220023088500220828
:1019200084007808A200A3008031200021218831A2
:1019300022002108850020088400780880007908AA
:10194000813F2100ED0A772C6830230091000030A0
:10195000920080312000AB2088310D302200A5009C
:1019600080312000882088310A302200A500803193
:10197000200088208831210050082200A700210083
:101980004F082200A600A9010530A80080312000E0
:10199000712188317908FA0078080C3E2200A000F5
:1019A0002030793DA100A8012108AA002008A90043
:1019B00080312000AF218831210052082200A70089
:1019C000210051082200A600A9010530A80080319D
:1019D0002000712188317908FA0078080C3E220035
:1019E000A0002030793DA1000130A8002108AA0004
:1019F0002008A90080312000AF218831210054083F
:101A00002200A700210053082200A600A9010530EA
:101A1000A80080312000712188317908FA00780807
:101A20000C3E2200A0002030793DA1000230A80029
:101A30002108AA002008A90080312000AF218831A8
:101A4000210056082200A700210055082200A60008
:101A5000A9010530A8008031200071218831790862
:101A6000FA0078080C3E2200A0002030793DA10049
:101A70000330A8002108AA002008A9008031200016
:101A8000AF218831210058082200A7002100570803
:101A90002200A600A9010530A80080312000712194
:101AA00088317908FA0078080C3E2200A000203026
:101AB000793DA1000430A8002108AA002008A9004F
:101AC00080312000AF21883121005A082200A70070
:101AD000210059082200A600A9010530A800803184
:101AE0002000712188317908FA0078080C3E220024
:101AF000A0002030793DA1000530A8002108AA00EF
:101B00002008A90080312000AF21883180312F2C9E
:101B10008831862DA32D21007330230091000030E1
:101B2000920080312000AB2088310D302200A500CA
:101B300080312000882088310A302200A5008031C1
:0C1B40002000882088312100F628630076
:020000040001F9
:04000E00C43FFF1ECE
:00000001FF
;PIC12F1840
;CRC=C556  CREATED="25-џэт-23 14:03"
